:060000000A128A11142906
:10000800F000030EF1000B196D200C18BE200B1C1C
:100018006828411C1728C11C1C28411D3228C11DF5
:100028004828411E5E28061E4114C1100B1068287E
:10003800861EC30A4308153C03190A300319C30076
:10004800061FC3034308093C031914300319C300EE
:10005800061EC114061E41110B106828861EC40A0C
:100068004408153C03190A300319C400061FC403C9
:100078004408093C031914300319C400061E41152D
:10008800061EC1110B106828861EC50A4508153CB6
:1000980003190A300319C500061FC5034508093CA2
:1000A800031914300319C500061EC115061E411296
:1000B8000B106828061E4116061E4110861E46149F
:1000C800061FC6140B106828710E8300F00E700E00
:1000D800090003138312F73081000B118801211CDA
:1000E8008328A11C8B28211D9228A11D9928211E37
:1000F800A028A11EA728211FAE28A11FB628A1014C
:100108002114220887003518870108140800A11453
:10011800230887003518870188140800211524084A
:100128008700B518870108150800A115250887005C
:10013800B518870188150800211626088700351983
:10014800870108160800A1162708870035198701B6
:1001580088160800211728088700B5190813B51D47
:1001680008170800A11729088700B5198813B51DB5
:100178008817080003138312DC308E000B308F00C1
:100188000C10A00A2008013C03180800A001B911AE
:10019800C61946104618F4284708003C031CDA28FC
:1001A800D5284808003C031CE128E72842124708E4
:1001B800031DC7033914391109004808031DC80372
:1001C8003910B9140900C9034908FF3C0319EF287D
:1001D800B91039150900C90AB9153914B9106828B0
:1001E80085100511051285128513861105148515CC
:0601F8000517C61568287A
:100200008A010A140F3982073F3406345B344F34B5
:1002100066346D347D3407347F346F3477347C3406
:1002200039345E34793471340317831688018901B7
:1002300003138316703086008801870185018901C8
:100240008113151695161517031383128601850160
:10025000870188018901FF2106220E22182225220A
:10026000031383120F30B6003608C7000F30C300E7
:100270000F30C4000F30C5000F30B7003708C8007A
:100280000F30B8003808C9003914B91039113C10C2
:10029000BC103C11E621C619172339188B223918D6
:1002A0004708B9184808B918490739194908421ABE
:1002B0004308B919C908B40035222A08AB003F2207
:1002C0002F08B000B918AC2239184708B9184808E7
:1002D0003919360839194907421A4408B919C908A1
:1002E000B919B607B40035222A08AC003F222F08FE
:1002F000B1003919C5223918470839184807B91803
:10030000480839194908421A4508B919C908B400FA
:1003100035222A08AD003F222F08B2003C18851470
:100320003C1C85103C180511BC180516BC1C051298
:10033000BC1885123C1985173C1D85133C19861184
:100340004618FA22C6180223C6190A23C61D4922D6
:10035000B919E422411CB429C11CBD29411DC82979
:10036000C11DD329411EDE29061186100610B515C0
:100370000030A8000030A9004A29B511061443082E
:10038000B40035222A08AE003F222F08B3004A29C4
:10039000061086144408B40035222A08AE003F2215
:1003A0002F08B3004A29861006154508B4003522E7
:1003B0002A08AE003F222F08B3004A2906148614EB
:1003C000B5150030A8000030A9004A292B080021EB
:1003D000A20030080021A3002C080021A40031084D
:1003E0000021A5002D080021A60032080021A70049
:1003F0002E080021A80033080021A90008000313DB
:1004000083160F178F160F120F1408008B178B15FA
:100410000B108B160B110C140C1008000313831611
:100420001616961616170313831206080B100800EB
:100430000313831681128111011581140114031312
:100440008312F73081000B11080003138312901000
:100450009016101690111011101403138312DC3033
:100460008E000B308F000C100800AA010A30B40275
:100470000318AA0A0318362A0A30B4070800AF0185
:100480000130B4020318AF0A0318402A0130B40740
:1004900008003A185022BA1860223A19702208004F
:1004A000421005195B224218080057220800051562
:1004B00035108022080005113514421480220800EE
:1004C000C210851A6B22C218080067220800851620
:1004D000B510802208008512B514C21480220800CD
:1004E000421186197B2242190800772208008615DE
:1004F000351180220800861135154215802208002A
:10050000C830BF008622BF0B822A0800F630BD002B
:10051000BD0B882A0800461C8E220800C611470819
:10052000053C0318A12A3C113A10BA103A11B51033
:10053000351035110510851286110515851505171D
:1005400008003A144708023C0318A72208003C148C
:100550003C113A1035100800461CAF22080048082C
:10056000053C0318BA2A3C1085110511051485169F
:1005700005170800BA144808023C0318C0220800F6
:100580003C10BC14BA10B5100800461CC822080064
:100590004908053C0318D52A421A0800BC108512E8
:1005A000051305148515861508003A154908023CFF
:1005B0000318DB220800BC103C153A11351149081C
:1005C000FF3C0319E422080042163C10BC103C1109
:1005D0008510051105128512851386113608C7008E
:1005E0003708C8003808C9003914B9103911B919C9
:1005F000B91108004308B6004408B7004508B80020
:10060000E42208000F30C3000F30C4000F30C500D3
:10061000C610080085100511051285128513861174
:100620003608C7003708C8003808C90008003C1160
:10063000BC103C103A11BA103A10B51035103511F3
:020640000800B0
:04400E00C430FF3F7C
:00000001FF
