:020000040000FA
:060000000A128A110E280D
:10000800FE00030EF1000408F2000A08F3000A12C9
:100018008A1138290A128A11112883133430FD00F5
:100028000130FE00E030FF00203084000A128A11FF
:100038000C220A128A11C301F601F701F8018301A3
:100048000A128A11F42964307902031C2C282D28FD
:100058008A28643083120313B4000030B50079088D
:10006800BC00BD013C08B6003D08B7000A128A1161
:10007800CF200A128A11831203133408BE003E08E7
:10008800F7000A30B4000030B5007908BC00BD01A3
:100098003C08B6003D08B7000A128A11CF200A12A0
:1000A8008A11831203133408BE003508BF00F630E6
:1000B800C0004008F40077080A128A11C9210A1200
:1000C8008A11831203133E07C1004108F6009C30D1
:1000D800BC003C08F40077080A128A11C9210A12E8
:1000E8008A1183120313BD00F630BE003E08F400E7
:1000F80076080A128A11C9210A128A118312031377
:100108003D077907BF003F08C300CE286430790255
:1001180003188F289028C0280A307902031C9528D4
:100128009628C028F7010A3083120313B400003060
:10013800B5007908BC00BD013C08B6003D08B70011
:100148000A128A11CF200A128A1183120313340863
:10015800BE003E08F600F630BC003C08F400760805
:100168000A128A11C9210A128A1179078312031304
:10017800BD003D08C300CE280A3079020318C528FF
:10018800C628CE28F701F601790883120313BC00AC
:100198003C08C300080083120313B901B51FD52812
:1001A800D628DD28B409B509B40A0319B50AB90176
:1001B800B90AB71FE028E128EA28B609B709B60A3C
:1001C8000319B70A0130F4007408B906BA01BB0173
:1001D800340835040319F128F2282929B801B80A86
:1001E800002901300310B40DB50DFF3E031DF6289C
:1001F8000130F4007408B807B51F03290429F5284D
:1002080001300310BA0DBB0DFF3E031D052935084B
:100218003702031D112934083602031C1429152935
:100228001C293408B6023508031CB703B7023A1470
:1002380001300310B50CB40CFF3E031D1D2901301D
:10024800B802031D282929290429390803192D2949
:100258002E293329BA09BB09BA0A0319BB0A3B0874
:10026800B5003A08B40008000B1D3B293C297C293D
:100278000A128A1121220A128A1183120313880191
:100288007808031D482949295629F801F80A7708EA
:10029800F0007007203E84008313000887000130B7
:1002A80088007C297803031D5A295B296A290230B2
:1002B800F0007008F8007608F0007007203E84000F
:1002C800831300088700023088007C2902307806F2
:1002D800031D6F2970297C29F8014308F000700775
:1002E800203E8400831300088700043088007C299E
:1002F8000B1C7F298029912983120313061885294D
:1003080086298A290130F0007008850786188D290A
:100318008E299029013085020B1073088A00720813
:100328008400710E8300FE0E7E0E090083160317EB
:10033800880189018316031385018701F830880035
:100348000330860083120313850186018701880123
:10035800831603130F170F170F130F148112811130
:100368000115811401100A128A111B220A128A111E
:10037800831603138113151495148B160B118B1503
:100388000B10161496148B17080083120313B5006C
:10039800B401351CD029D129D5297408F500750870
:1003A800B4070310F40D0310B50C3508031DDD293F
:1003B800DE29CD29340808003F34003406340034DF
:1003C8005B3400344F340034663400346D34003408
:1003D8007D340034073400347F340034673400340B
:1003E8000A128A119A210A128A1183120313050824
:1003F800C2004208F9000A128A1127200A128A113B
:10040800F9290A128A110E287E088A007F088200BC
:100418000A128A1108220A128A118000840A040822
:100428007D0603190034FF0A0319FE0A0C2AF73067
:100438008312031381000B110800F7308312031392
:0604480081000B11080009
:04400E00C430FF3F7C
:00000001FF
