:020000040000FA
:060000000A128A110E280D
:10000800FE00030EF8000408F9000A08FA000A12B4
:100018008A11FF280A128A1111288317EC30FD0073
:100028000130FE006A30FF00903084000A128A1105
:10003800ED220A128A118313E330FD000130FE001D
:10004800C630FF00A03084000A128A11ED220A127D
:100058008A115630FD000230FE007F30FF0020304C
:1000680084000A128A11ED220A128A11E101E201C2
:10007800FB01FC0183010A128A1142280A128A1123
:10008800B5220A128A11033083120313E0008A3062
:10009800DF005530DE00DE0B4F28DF0B4F28E00B6A
:1000A8004F28C53083120313D7000030D8000A1236
:1000B8008A1109220A128A11A03083120313D70069
:1000C8000030D8000A128A1109220A128A11343023
:1000D80083120313D7000030D8000A128A110922AC
:1000E8000A128A11203083120313D7000030D80077
:1000F8000A128A1109220A128A117B037C04031945
:1001080086288728812802307B067C04031D8D28D9
:100118008E289028812881288312031361036204A2
:10012800031D97289828D2284830D7000030D800D7
:100138000A128A1109220A128A11C530831203137E
:10014800D7000030D8000A128A1109220A128A112F
:10015800A03083120313D7000030D8000A128A1186
:1001680009220A128A11343083120313D70000308F
:10017800D8000A128A1109220A128A112030831221
:100188000313D7000030D8000A128A1109220A1274
:100198008A1183120313E101E2018128023061060A
:1001A8006204031DD828D928E728BE30D7000130BB
:1001B800D8000A128A1109220A128A110130FB009A
:1001C8000030FC008128033061066204031DED281D
:1001D800EE288F289030D7000130D8000A128A11F3
:1001E80009220A128A110230FB000030FC00812823
:1001F8000A128A110E28831203138C1E042905295A
:1002080061297B037C04031D0A290B2936291A0856
:100218008500E101E201FB01FC01C530F10000307D
:10022800F2000A128A1148220A128A11A030F1003B
:100238000030F2000A128A1148220A128A11343058
:10024800F1000030F2000A128A1148220A128A11BB
:100258002030F1000030F2000A128A1148220A12F6
:100268008A11612902307B067C04031D3C293D2943
:1002780040291A0886000D2931301A06031D452920
:1002880046294B290130E1000030E2006129323073
:100298001A06031D5029512956290230E100003061
:1002A800E200612933301A06031D5B295C296129A4
:1002B8000330E1000030E20061297A088A007908F9
:1002C8008400780E8300FE0E7E0E09000D34203463
:1002D80049346E34743472346F34643475347A3417
:1002E80063346134203465346C3420346E347534AE
:1002F800653476346F3420346434613474346F3444
:1003080020347034613472346134203465346C3490
:100318002034703475346534723474346F34203456
:10032800423420340D3400340D34203449346E34D2
:10033800743472346F34643475347A3463346134A9
:10034800203465346C3420346E3475346534763436
:100358006F3420346434613474346F34203470342E
:10036800613472346134203465346C342034703430
:1003780075346534723474346F3420344134203425
:100388000D3400342834313429342034443465346D
:10039800733470346C3465346734613472342034A7
:1003A80063346134643465346E34613420346434C5
:1003B80065342034633461347234613463347434A2
:1003C800653472346534733420340D3400340D349C
:1003D800513475346534203461346334633469349A
:1003E8006F346E3420346434653473346534613466
:1003F800203465346A346534633475347434613454
:1004080072343F3420340D34003483120313DC017A
:10041800DD012F2A5C085707DA005808D9000318AD
:10042800D90ADC1F182AD903831203135908DB00E1
:100438005A08840083175B1C831300080A128A1168
:10044800FC220A128A11013083120313DC070318F5
:10045800DD0A0030DD075C085707DA005808D900C4
:100468000318D90ADC1F392AD90383120313590840
:10047800DB005A08840083175B1C83130008031DE4
:10048800462A472A0E2A0800F601F701682A760844
:100498007107F4007208F3000318F30AF61F552ACF
:1004A800F3037308F500740884008317751C83131D
:1004B80000080A128A1106230A128A110130F60767
:1004C8000318F70A0030F70776087107F400720876
:1004D800F3000318F30AF61F722AF3037308F500F2
:1004E800740884008317751C83130008031D7D2A74
:1004F8007E2A4B2A080028343334293420344334E4
:1005080061346D3462346934613472342034503467
:100518004F3452345434423420340D3400342834A7
:10052800323429342034433461346D3462346934CC
:1005380061347234203450344F345234543441349A
:1005480020340D3400340D344234693465346E344B
:10055800763465346E34693464346F3420340D3441
:100568000034831603178801890183160313850154
:10057800FF308700880186018901831203138501F2
:100588008601870188018901831603130F178F16C7
:100598000F120F1418121815831603178711193024
:1005A8008316031399009A018312031398171813DB
:1005B8001816831603139816831203138C128316C6
:1005C80003138C160B178B1708007E088A007F0808
:1005D80082000A128A11E9220A128A118000840A0A
:1005E80004087D0603190034FF0A0319FE0AED2AE0
:1005F80083120313D6000C1E022B032BFF2A560866
:1006080099000800F000831203130C1E0C2B0D2B0D
:08061800072B7008990008008F
:04400E00D430FF3F6C
:00000001FF
