:060000000A128A11142906
:10000800F000030EF1000B1910200B183A20710EA6
:100018008300F00E700E090003138312D93081009B
:100028000B118801211C2028A11C2628211D2B2802
:10003800A11D3028211E3528A1012114240887007C
:1000480088140800A1142508870008140800211541
:100058002608870008150800A115270887008815B5
:1000680008002116280887000816080003138312C1
:0C007800061C850A861F85030B1008007B
:100200008A010A140F3982073F3406345B344F34B5
:1002100066346D347D3407347F346F3477347C3406
:1002200039345E34793471340317831688018901B7
:100230000313831681308600E03088008701850132
:100240008113151495170313831285018701880103
:10025000522159215F216821031383120508A00050
:100260003B2142210508AC00752129087F212A087D
:1002700089212B082E2920080F39A200200E0F39C2
:10028000A300080022080021A40023080021A500E3
:1002900029080021A6002A080021A7002B08002118
:1002A000A8000800031383160F178F160F120F14E0
:1002B00008008B178B150B108B160B1108000313FE
:1002C0008316161496170313831206080B100800E2
:1002D0000313831681128111011581140114031374
:1002E0008312D93081000B110800A9016430AC02DF
:1002F0000318A90A031876296430AC070800AA017C
:100300000A30AC020318AA0A031880290A30AC0785
:100310000800AB010130AC020318AB0A03188A29AC
:060320000130AC070800EB
:04400E00C430FF3F7C
:00000001FF
