:020000040000FA
:060000000A128A110C280F
:10000800FE00030EF2000A08F3000A128A111328F0
:100018000A128A110F2883010A128A11CF28831223
:1000280003130C1F182819286B281F0CF000700CDC
:100038000F39003A031D2128222847281E08F000FE
:100048000310700C803E95001E080139F000F00E78
:10005800F00D17087006DF39700697008316031332
:100068001E08F00007300310F00CFF3E031D372870
:100078007008F100F10E8312031317087106EF39A7
:10008800710697006B281E08F0000310700C803E64
:100098009B001E080139F000F00EF00D1D087006D7
:1000A800DF3970069D00831603131E08F000073021
:1000B8000310F00CFF3E031D5C287008F100F10EE0
:1000C800831203131D087106EF3971069D000C1386
:1000D80073088A00720E8300FE0E7E0E090003303C
:1000E80083160317880089010330831603138500DC
:1000F800870188018601890183120313850186011E
:10010800870188018901831603130F178F160F16AD
:100118000F149F131F129F12831203131F083F39D6
:1001280080389F00C3309F052130F400F40B9A28D3
:10013800831203131F148316031307158714FA3049
:1001480092003F308312031397051708F0390C38D3
:1001580097001D08F0390C389D000F3095000F30BE
:100168009B00CF3097051D129D128C10033092040E
:1001780012158C1CC028C128BD288C1083160313A7
:1001880007118710831203130C13831603130C171C
:100198000B178B1708000A128A1173200A128A118A
:1001A8002130F500F50BD628831203139F149F18EE
:1001B800DE28DF28DB281F0CF500750C0F39003A04
:1001C800031DE728E828ED281F08C33904389F00D5
:1001D800EF28C3309F052130F500F50BF128831275
:0C01E80003139F14DB280A128A110C2854
:04400E00C430FF3F7C
:00000001FF
