:020000040000FA
:060000000A128A110E280D
:10000800FE00030EF1000408F2000A08F3000A12C9
:100018008A1139290A128A11112883133430FD00F4
:100028000230FE002C30FF00203084000A128A11B2
:1000380044220A128A11C301F601F701F801F901F5
:1000480083010A128A11E22964307902031C2D28DF
:100058002E288B28643083120313B4000030B500B7
:100068007908BC00BD013C08B6003D08B7000A127B
:100078008A11D0200A128A11831203133408BE0091
:100088003E08F7000A30B4000030B5007908BC001B
:10009800BD013C08B6003D08B7000A128A11D020FD
:1000A8000A128A11831203133408BE003508BF00F0
:1000B800F630C0004008F40077080A128A111522A9
:1000C8000A128A11831203133E07C1004108F60081
:1000D8009C30BC003C08F40077080A128A111522EB
:1000E8000A128A1183120313BD00F630BE003E08BF
:1000F800F40076080A128A1115220A128A1183124C
:1001080003133D077907BF003F08C300CF286430B9
:100118007902031890289128C1280A307902031C13
:1001280096289728C128F7010A3083120313B400D0
:100138000030B5007908BC00BD013C08B6003D0898
:10014800B7000A128A11D0200A128A1183120313E7
:100158003408BE003E08F600F630BC003C08F40047
:1001680076080A128A1115220A128A11790783124F
:100178000313BD003D08C300CF280A3079020318D5
:10018800C628C728CF28F701F60179088312031378
:10019800BC003C08C300080083120313B901B51F53
:1001A800D628D728DE28B409B509B40A0319B50A30
:1001B800B901B90AB71FE128E228EB28B609B7093F
:1001C800B60A0319B70A0130F4007408B906BA016F
:1001D800BB01340835040319F228F3282A29B80189
:1001E800B80A012901300310B40DB50DFF3E031DF7
:1001F800F7280130F4007408B807B51F0429052949
:10020800F62801300310BA0DBB0DFF3E031D062969
:1002180035083702031D122934083602031C152934
:1002280016291D293408B6023508031CB703B7027E
:100238003A1401300310B50CB40CFF3E031D1E29FF
:100248000130B802031D29292A290529390803196B
:100258002E292F293429BA09BB09BA0A0319BB0A5E
:100268003B08B5003A08B40008000B1D3C293D299D
:100278007D290A128A1159220A128A11831203133C
:1002880088017808031D49294A295729F801F80ADD
:100298007708F0007007203E840083130008870069
:1002A800013088007D297803031D5B295C296B29AF
:1002B8000230F0007008F8007608F0007007203E61
:1002C8008400831300088700023088007D290230EB
:1002D8007806031D702971297D29F8014308F0006B
:1002E8007007203E840083130008870004308800CC
:1002F8007D29831203130C1F8229832994291F0C3B
:10030800F000700C0F39053A031D8B298C298F29B1
:100318001E08850093291E08F0007008F9000C13C8
:1003280073088A0072088400710E8300FE0E7E0E28
:1003380009006030831603178800FF308900831690
:100348000313850187018801860103308900831220
:100358000313850186018701880189018316031328
:100368000F170F170F130F14811281110115811424
:1003780001100A128A1153220A128A1183160313D2
:100388009F131F129F12831203131F083F3940380F
:100398009F001F08C33914389F001030F400F40B75
:1003A800D3290000831203131F148B160B110C138F
:1003B800831603130C170B178B1708000A128A11E0
:1003C8009D210A128A11831203139F1483120313A7
:1003D8009F18EF29F0290C2A1F0CC200420C0F3974
:1003E800053A031DF829F929FE291F08C3391838C9
:1003F8009F00022A1F08C33914389F000F30831248
:100408000313C200C20B062A092A831203139F147E
:100418000A128A1128200A128A11EA290A128A1154
:100428000E2883120313B500B401351C1C2A1D2A9B
:10043800212A7408F5007508B4070310F40D031099
:10044800B50C3508031D292A2A2A192A3408080058
:100458003F340034063400345B3400344F34003405
:10046800663400346D3400347D340034073400348D
:100478007F340034673400347E088A007F088200A5
:100488000A128A1140220A128A118000840A04087A
:100498007D0603190034FF0A0319FE0A442AF730BF
:1004A8008312031381000B110800F7308312031322
:0604B80081000B11080099
:04400E00C430FF3F7C
:00000001FF
