:060000000A128A11142906
:10000800F000030EF1000B1912200C1827208C1891
:100018003B20710E8300F00E700E0900031383124B
:10002800F73081000B118801241C1C28A41C2228ED
:10003800A40124142508870008140800A41426081D
:1000480087008814080003138312B8308E000B3021
:100058008F000C10A00A2008023C031D3A28A001BA
:100068002208633C031DA20A0319A2010800031316
:100078008316F43092000313831291018C10A10AA5
:100088002108043C031D5128A10105184E28051418
:0C0098002D100D2805102D140800080084
:100200008A010A140F3982073F3406345B344F34B5
:1002100066346D347D3407347F346F3477347C3406
:1002200039345E34793471340317831688018901B7
:100230000313831686018801870185010313831246
:1002400085018701880186013C2143214B215821EA
:100250006B210313831235212D1887012208AC006E
:100260007F212A0889212B082B292A080021A50093
:100270002B080021A6000800031383160F178F1602
:100280000F120F1408008B170C140C108C148C1008
:100290008B160B11080003138316811281110115AF
:1002A0008114011403138312F73081000B1108002D
:1002B000031383160C140313831290109016101658
:1002C00090111011101403138312B8308E000B30EC
:1002D0008F000C100800031383168C140313831271
:1002E00092151216921612179214121503138316F2
:1002F000F43092000313831291018C100800AA01BC
:100300000A30AC020318AA0A031880290A30AC0785
:100310000800AB010130AC020318AB0A03188A29AC
:060320000130AC070800EB
:04400E00C430FF3F7C
:00000001FF
